{
  "contractName": "StoriesContract",
  "abi": [
    {
      "anonymous": false,
      "inputs": [
        {
          "indexed": false,
          "name": "title",
          "type": "string"
        },
        {
          "indexed": false,
          "name": "body",
          "type": "string"
        },
        {
          "indexed": false,
          "name": "id",
          "type": "uint256"
        }
      ],
      "name": "OnNewStoryCreated",
      "type": "event"
    },
    {
      "anonymous": false,
      "inputs": [
        {
          "indexed": false,
          "name": "title",
          "type": "string"
        },
        {
          "indexed": false,
          "name": "body",
          "type": "string"
        },
        {
          "indexed": false,
          "name": "parentId",
          "type": "uint256"
        },
        {
          "indexed": false,
          "name": "id",
          "type": "uint256"
        }
      ],
      "name": "OnNewNodeCreated",
      "type": "event"
    },
    {
      "constant": false,
      "inputs": [
        {
          "name": "title",
          "type": "string"
        },
        {
          "name": "body",
          "type": "string"
        }
      ],
      "name": "createNewStoryNode",
      "outputs": [],
      "payable": false,
      "stateMutability": "nonpayable",
      "type": "function"
    },
    {
      "constant": false,
      "inputs": [
        {
          "name": "parentNodeId",
          "type": "uint256"
        },
        {
          "name": "title",
          "type": "string"
        },
        {
          "name": "body",
          "type": "string"
        }
      ],
      "name": "addStoryNode",
      "outputs": [],
      "payable": false,
      "stateMutability": "nonpayable",
      "type": "function"
    },
    {
      "constant": true,
      "inputs": [
        {
          "name": "id",
          "type": "uint256"
        }
      ],
      "name": "getStoryNode",
      "outputs": [
        {
          "name": "",
          "type": "uint256"
        },
        {
          "name": "",
          "type": "string"
        },
        {
          "name": "",
          "type": "string"
        },
        {
          "name": "",
          "type": "address"
        }
      ],
      "payable": false,
      "stateMutability": "view",
      "type": "function"
    },
    {
      "constant": true,
      "inputs": [],
      "name": "getNumberNodes",
      "outputs": [
        {
          "name": "",
          "type": "uint256"
        }
      ],
      "payable": false,
      "stateMutability": "view",
      "type": "function"
    }
  ],
  "bytecode": "0x608060405234801561001057600080fd5b50610b6a806100206000396000f300608060405260043610610062576000357c0100000000000000000000000000000000000000000000000000000000900463ffffffff16806341c2b31b14610067578063507d5ba5146101b35780638ec6699414610262578063dbf0f4b11461028d575b600080fd5b34801561007357600080fd5b5061009260048036038101908080359060200190929190505050610346565b6040518085815260200180602001806020018473ffffffffffffffffffffffffffffffffffffffff1673ffffffffffffffffffffffffffffffffffffffff168152602001838103835286818151815260200191508051906020019080838360005b8381101561010e5780820151818401526020810190506100f3565b50505050905090810190601f16801561013b5780820380516001836020036101000a031916815260200191505b50838103825285818151815260200191508051906020019080838360005b83811015610174578082015181840152602081019050610159565b50505050905090810190601f1680156101a15780820380516001836020036101000a031916815260200191505b50965050505050505060405180910390f35b3480156101bf57600080fd5b50610260600480360381019080803590602001908201803590602001908080601f0160208091040260200160405190810160405280939291908181526020018383808284378201915050505050509192919290803590602001908201803590602001908080601f01602080910402602001604051908101604052809392919081815260200183838082843782019150505050505091929192905050506104dc565b005b34801561026e57600080fd5b50610277610742565b6040518082815260200191505060405180910390f35b34801561029957600080fd5b5061034460048036038101908080359060200190929190803590602001908201803590602001908080601f0160208091040260200160405190810160405280939291908181526020018383808284378201915050505050509192919290803590602001908201803590602001908080601f016020809104026020016040519081016040528093929190818152602001838380828437820191505050505050919291929050505061074c565b005b60006060806000806000808781526020019081526020016000209050806000015481600101826002018360030160009054906101000a900473ffffffffffffffffffffffffffffffffffffffff16828054600181600116156101000203166002900480601f0160208091040260200160405190810160405280929190818152602001828054600181600116156101000203166002900480156104295780601f106103fe57610100808354040283529160200191610429565b820191906000526020600020905b81548152906001019060200180831161040c57829003601f168201915b50505050509250818054600181600116156101000203166002900480601f0160208091040260200160405190810160405280929190818152602001828054600181600116156101000203166002900480156104c55780601f1061049a576101008083540402835291602001916104c5565b820191906000526020600020905b8154815290600101906020018083116104a857829003601f168201915b505050505091509450945094509450509193509193565b6104e4610a06565b60a06040519081016040528060015481526020018481526020018381526020013373ffffffffffffffffffffffffffffffffffffffff16815260200160006040519080825280602002602001820160405280156105505781602001602082028038833980820191505090505b5081525090508060008083600001518152602001908152602001600020600082015181600001556020820151816001019080519060200190610593929190610a4c565b5060408201518160020190805190602001906105b0929190610a4c565b5060608201518160030160006101000a81548173ffffffffffffffffffffffffffffffffffffffff021916908373ffffffffffffffffffffffffffffffffffffffff1602179055506080820151816004019080519060200190610614929190610acc565b509050506001600081548092919060010191905055507f148b66778400af4eb97e96c725909ab612f93037e63f3161a069afe522847b7f8383600154604051808060200180602001848152602001838103835286818151815260200191508051906020019080838360005b8381101561069a57808201518184015260208101905061067f565b50505050905090810190601f1680156106c75780820380516001836020036101000a031916815260200191505b50838103825285818151815260200191508051906020019080838360005b838110156107005780820151818401526020810190506106e5565b50505050905090810190601f16801561072d5780820380516001836020036101000a031916815260200191505b509550505050505060405180910390a1505050565b6000600154905090565b6000610756610a06565b600080868152602001908152602001600020915060a06040519081016040528060015481526020018581526020018481526020013373ffffffffffffffffffffffffffffffffffffffff16815260200160006040519080825280602002602001820160405280156107d65781602001602082028038833980820191505090505b5081525090508060008083600001518152602001908152602001600020600082015181600001556020820151816001019080519060200190610819929190610a4c565b506040820151816002019080519060200190610836929190610a4c565b5060608201518160030160006101000a81548173ffffffffffffffffffffffffffffffffffffffff021916908373ffffffffffffffffffffffffffffffffffffffff160217905550608082015181600401908051906020019061089a929190610acc565b5090505060016000815480929190600101919050555081600401816000015190806001815401808255809150509060018203906000526020600020016000909192909190915055507fafe0e01b6392b2d3632883747390f8e5ab908f3649d0bde7e504a3d831f20f0b8484878460000151604051808060200180602001858152602001848152602001838103835287818151815260200191508051906020019080838360005b8381101561095b578082015181840152602081019050610940565b50505050905090810190601f1680156109885780820380516001836020036101000a031916815260200191505b50838103825286818151815260200191508051906020019080838360005b838110156109c15780820151818401526020810190506109a6565b50505050905090810190601f1680156109ee5780820380516001836020036101000a031916815260200191505b50965050505050505060405180910390a15050505050565b60a060405190810160405280600081526020016060815260200160608152602001600073ffffffffffffffffffffffffffffffffffffffff168152602001606081525090565b828054600181600116156101000203166002900490600052602060002090601f016020900481019282601f10610a8d57805160ff1916838001178555610abb565b82800160010185558215610abb579182015b82811115610aba578251825591602001919060010190610a9f565b5b509050610ac89190610b19565b5090565b828054828255906000526020600020908101928215610b08579160200282015b82811115610b07578251825591602001919060010190610aec565b5b509050610b159190610b19565b5090565b610b3b91905b80821115610b37576000816000905550600101610b1f565b5090565b905600a165627a7a723058208a292ef882ccaaf21606c1a6fbedd6e1adac730c6c243917bfd5217ebe1afc3a0029",
  "source": "pragma solidity  ^0.4.19;\n\ncontract StoriesContract {\n\n  event OnNewStoryCreated(string title, string body, uint id);\n  event OnNewNodeCreated(string title, string body, uint parentId, uint id);\n\n  struct StoryNode {\n    uint id;\n\n    string title;\n    string body;\n\n    address owner;\n\n    // Id's of child nodes\n    //Lookups to be done in storiesNodes\n    uint[] childNodesIds;\n  }\n\n  // All nodes\n  // Maps nodes Ids => Node Struct\n  // All nodes are held here for direct lookup vs looping through nested nodes\n  mapping(uint => StoryNode) storiesNodes;\n\n  // total nr of nodes\n  //also used to increment nodes Ids\n  uint nr_nodes;\n\n  /**\n  * Creates a new Story Root Node.\n  *\n  */\n  function createNewStoryNode(string title, string body) public {\n    StoryNode memory newNode = StoryNode(nr_nodes, title, body, msg.sender, new uint[](0));\n    storiesNodes[newNode.id] = newNode;\n    nr_nodes++;\n\n    emit OnNewStoryCreated(title, body, nr_nodes);\n  }\n\n  /**\n  * Adds a child node to the parent Node by id\n  *\n  * Requires parent node id to exist.\n  */\n  function addStoryNode(uint parentNodeId, string title, string body) public {\n    StoryNode storage parentNode = storiesNodes[parentNodeId];\n\n    StoryNode memory newNode = StoryNode(nr_nodes, title, body, msg.sender, new uint[](0));\n    storiesNodes[newNode.id] = newNode;\n    nr_nodes++;\n\n    parentNode.childNodesIds.push(newNode.id);\n\n    emit OnNewNodeCreated(title, body, parentNodeId, newNode.id);\n  }\n\n  /**\n  * Returns node's id, title, body, owner's address\n  */\n  function getStoryNode(uint id) public view returns(uint, string, string, address) {\n      StoryNode storage node = storiesNodes[id];\n      return (node.id, node.title, node.body, node.owner);\n  }\n\n  /**\n  *\n  *\n  */\n  function getNumberNodes() public view returns(uint) {\n      return nr_nodes;\n  }\n}\n",
  "sourcePath": "/Users/bruno/Downloads/CYOA/contracts/StoriesContract.sol",
  "compiler": {
    "name": "solc",
    "version": "0.4.24+commit.e67f0147.Emscripten.clang"
  },
  "schemaVersion": "2.0.1",
  "updatedAt": "2018-07-03T12:48:04.502Z"
}